S020000057617264726F62652D44696D6D65722D4669726D776172652E73726563D9
S11300000EC028C027C027C025C024C023C022C0DA
S113001021C020C01FC01EC01DC01CC01BC0112495
S11300201FBECFE5D2E0DEBFCDBF10E0A0E6B0E05A
S1130030E8EFF0E002C005900D92A236B107D9F7BF
S113004020E0A2E6B0E001C01D92A636B207E1F7B7
S113005036D050C0D5CF1F920F920FB60F921124F5
S11300608F939F93AF93BF938091620090916300AD
S1130070A0916400B09165000196A11DB11D80930B
S1130080620090936300A0936400B0936500BF91F5
S1130090AF919F918F910F900FBE0F901F90189565
S11300A0369A3699FECF85B190916000992331F04C
S11300B010926000369A3699FECF85B10895F0DF2C
S11300C040916200509163006091640070916500FA
S11300D08091620090916300A0916400B0916500EA
S11300E0841B950BA60BB70B88389341A105B1056A
S10B00F078F3FFCFF894FFCF71
S10500F8010001
S9030000FC
