:100000000EC028C027C027C025C024C023C022C0DE
:1000100021C020C01FC01EC01DC01CC01BC0112499
:100020001FBECFE5D2E0DEBFCDBF10E0A0E6B0E05E
:10003000E6EAF0E002C005900D92A036B107D9F7CC
:1000400020E0A0E6B0E001C01D92A436B207E1F7BF
:1000500027D027C0D5CF1F920F920FB60F92112431
:100060008F939F93AF93BF938091600090916100B5
:10007000A0916200B09163000196A11DB11D809313
:10008000600090936100A0936200B0936300BF9101
:10009000AF919F918F910F900FBE0F901F90189569
:0600A000FFCFF894FFCF32
:00000001FF
